:020000040800F2
:1000000000C00020D9440008AD420008AF420008FB
:10001000B1420008B3420008B542000800000000E9
:10002000000000000000000000000000B7420008CF
:10003000B942000800000000BB420008BD420008B1
:1000400021450008214500082145000821450008F8
:1000500021450008214500082145000821450008E8
:1000600021450008214500082145000821450008D8
:100070002145000821450008C5420008D542000876
:1000800021450008214500082145000821450008B8
:1000900021450008214500082145000821450008A8
:1000A0002145000821450008214500082145000898
:1000B0002145000821450008214500082145000888
:1000C0002145000821450008214500082145000878
:1000D00021450008E54200082145000821450008A7
:1000E0002145000821450008214500082145000858
:1000F0002145000821450008214500082145000848
:100100002145000821450008214500082145000837
:100110002145000821450008214500082145000827
:100120002145000821450008214500082145000817
:1001300000000000000000000000000000000000BF
:1001400000000000000000000000000000000000AF
:10015000000000000000000000000000000000009F
:10016000000000000000000000000000000000008F
:10017000000000000000000000000000000000007F
:10018000000000000000000000000000000000006F
:10019000000000000000000000000000000000005F
:1001A000000000000000000000000000000000004F
:1001B000000000000000000000000000000000003F
:1001C000000000000000000000000000000000002F
:1001D000000000000000000000000000000000001F
:0401E0005FF8E0F1F3
:1001E80010B5054C237833B9044B13B10448AFF369
:1001F80000800123237010BDF009002000000000DA
:10020800E0EE000808B5034B1BB103490348AFF300
:10021800008008BD00000000F4090020E0EE00089E
:1002280081F0004102E000BF83F0004330B54FEA9F
:1002380041044FEA430594EA050F08BF90EA020F0C
:100248001FBF54EA000C55EA020C7FEA645C7FEA9F
:10025800655C00F0E2804FEA5454D4EB5555B8BFC2
:100268006D420CDD2C4480EA020281EA030382EA33
:10027800000083EA010180EA020281EA0303362DC5
:1002880088BF30BD11F0004F4FEA01314FF4801C98
:100298004CEA113102D0404261EB410113F0004FAA
:1002A8004FEA03334CEA133302D0524263EB430361
:1002B80094EA050F00F0A780A4F10104D5F1200EFF
:1002C8000DDB02FA0EFC22FA05F2801841F100015A
:1002D80003FA0EF2801843FA05F359410EE0A5F12E
:1002E80020050EF1200E012A03FA0EFC28BF4CF05F
:1002F800020C43FA05F3C01851EBE37101F0004515
:1003080007D54FF0000EDCF1000C7EEB00006EEB21
:100318000101B1F5801F1BD3B1F5001F0CD34908AB
:100328005FEA30004FEA3C0C04F101044FEA445202
:1003380012F5800F80F09A80BCF1004F08BF5FEA89
:10034800500C50F1000041EB045141EA050130BD69
:100358005FEA4C0C404141EB0101013C28BFB1F57B
:10036800801FE9D291F0000F04BF01460020B1FAC6
:1003780081F308BF2033A3F10B03B3F120020CDA99
:100388000C3208DD02F1140CC2F10C0201FA0CF077
:1003980021FA02F10CE002F11402D8BFC2F1200CDC
:1003A80001FA02F120FA0CFCDCBF41EA0C01904092
:1003B800E41AA2BF01EB0451294330BD6FEA0404DB
:1003C8001F3C1CDA0C340EDC04F11404C4F12002C6
:1003D80020FA04F001FA02F340EA030021FA04F3D8
:1003E80045EA030130BDC4F10C04C4F1200220FA2F
:1003F80002F001FA04F340EA0300294630BD21FA6D
:1004080004F0294630BD94F0000F83F4801306BF32
:1004180081F480110134013D4EE77FEA645C18BF26
:100428007FEA655C29D094EA050F08BF90EA020FBD
:1004380005D054EA000C04BF1946104630BD91EAB5
:10044800030F1EBF0021002030BD5FEA545C05D1B8
:100458004000494128BF41F0004130BD14F58004F7
:100468003CBF01F5801130BD01F0004545F0FE416B
:1004780041F470014FF0000030BD7FEA645C1ABFA0
:10048800194610467FEA655C1CBF0B46024650EAD7
:10049800013406BF52EA033591EA030F41F4002103
:1004A80030BD00BF90F0000F04BF0021704730B589
:1004B8004FF4806404F132044FF000054FF000015E
:1004C80050E700BF90F0000F04BF0021704730B51F
:1004D8004FF4806404F1320410F0004548BF4042F4
:1004E8004FF000013EE700BF42004FEAE2014FEA49
:1004F80031014FEA02701FBF12F07F4393F07F4F24
:1005080081F06051704732F07F4208BF704793F026
:100518007F4F04BF41F40021704730B54FF4607439
:1005280001F0004521F000411CE700BF50EA01023C
:1005380008BF704730B54FF000050AE050EA0102E5
:1005480008BF704730B511F0004502D5404261EB55
:1005580041014FF4806404F132045FEA915C3FF496
:10056800D8AE4FF003025FEADC0C18BF03325FEA33
:10057800DC0C18BF033202EBDC02C2F1200300FAE4
:1005880003FC20FA02F001FA03FE40EA0E0021FA09
:1005980002F11444BDE600BF4FEA4102B2F1E04364
:1005A80024BFB3F5001CDCF1FE5C0DD901F0004C52
:1005B8004FEAC0024CEA5070B2F1004F40EB8300A2
:1005C80008BF20F00100704711F0804F21D113F1CE
:1005D8003872BCBF01F00040704741F480114FEA07
:1005E8005252C2F11802C2F1200C10FA0CF320FA90
:1005F80002F018BF40F001004FEAC1234FEAD323AD
:1006080003FA0CFC40EA0C0023FA02F34FEA430316
:10061800CCE77FEA625307D150EA01331EBF4FF09F
:10062800FE4040F44000704701F0004040F0FE40BA
:1006380040F40000704700BF80F0004002E000BFB7
:1006480081F0004142001FBF5FEA410392EA030FB5
:100658007FEA226C7FEA236C6AD04FEA1262D2EBFF
:100668001363C1BFD218414048404140B8BF5B4204
:10067800192B88BF704710F0004F40F4000020F09D
:100688007F4018BF404211F0004F41F4000121F0B3
:100698007F4118BF494292EA030F3FD0A2F10102FD
:1006A80041FA03FC10EB0C00C3F1200301FA03F13B
:1006B80000F0004302D5494260EB4000B0F5000F5E
:1006C80013D3B0F1807F06D340084FEA310102F11D
:1006D8000102FE2A51D2B1F1004F40EBC25008BFCF
:1006E80020F0010040EA03007047490040EB000099
:1006F800013A28BFB0F5000FEDD2B0FA80FCACF19A
:10070800080CB2EB0C0200FA0CF0AABF00EBC250C6
:1007180052421843BCBFD0401843704792F0000FB4
:1007280081F4000106BF80F400000132013BB5E707
:100738004FEA41037FEA226C18BF7FEA236C21D07D
:1007480092EA030F04D092F0000F08BF08467047E2
:1007580090EA010F1CBF0020704712F07F4F04D1B0
:10076800400028BF40F00040704712F100723CBFC3
:1007780000F50000704700F0004343F0FE4040F4ED
:10078800000070477FEA226216BF08467FEA2363AB
:100798000146420206BF5FEA412390EA010F40F496
:1007A800800070474FF0000304E000BF10F00043E2
:1007B80048BF40425FEA000C08BF704743F09643C9
:1007C80001464FF000001CE050EA010208BF7047E4
:1007D8004FF000030AE000BF50EA010208BF70476B
:1007E80011F0004302D5404261EB41015FEA010C80
:1007F80002BF84460146002043F0B64308BFA3F178
:100808008053A3F50003BCFA8CF2083AA3EBC25359
:1008180010DB01FA02FC634400FA02FCC2F1200278
:10082800BCF1004F20FA02F243EB020008BF20F0AF
:100838000100704702F1200201FA02FCC2F1200215
:1008480050EA4C0021FA02F243EB020008BF20EA0A
:10085800DC7070474FF0FF0C1CEAD0521EBF1CEA38
:10086800D15392EA0C0F93EA0C0F6FD01A4480EA26
:10087800010C400218BF5FEA41211ED04FF000630F
:1008880043EA501043EA5111A0FB01310CF000403B
:10089800B1F5000F3EBF490041EAD3715B0040EA61
:1008A800010062F17F02FD2A1DD8B3F1004F40EB31
:1008B800C25008BF20F00100704790F0000F0CF004
:1008C800004C08BF49024CEA502040EA51207F3AC8
:1008D800C2BFD2F1FF0340EAC250704740F40000A3
:1008E8004FF00003013A5DDC12F1190FDCBF00F094
:1008F80000407047C2F10002410021FA02F1C2F142
:10090800200200FA02FC5FEA310040F1000053EADD
:100918004C0308BF20EADC70704792F0000F00F02B
:10092800004C02BF400010F4000F013AF9D040EA31
:100938000C0093F0000F01F0004C02BF490011F4C5
:10094800000F013BF9D041EA0C018FE70CEAD153C3
:1009580092EA0C0F18BF93EA0C0F0AD030F0004C43
:1009680018BF31F0004CD8D180EA010000F00040F7
:10097800704790F0000F17BF90F0004F084691F0B5
:10098800000F91F0004F14D092EA0C0F01D14202EF
:100998000FD193EA0C0F03D14B0218BF084608D1B8
:1009A80080EA010000F0004040F0FE4040F4000002
:1009B800704740F0FE4040F4400070474FF0FF0C95
:1009C8001CEAD0521EBF1CEAD15392EA0C0F93EADC
:1009D8000C0F69D0A2EB030280EA010C49024FEA2E
:1009E800402037D04FF0805343EA111143EA1013E7
:1009F8000CF000408B4238BF5B0042F17D024FF49F
:100A0800000C8B4224BF5B1A40EA0C00B3EB510F79
:100A180024BFA3EB510340EA5C00B3EB910F24BF62
:100A2800A3EB910340EA9C00B3EBD10F24BFA3EBE7
:100A3800D10340EADC001B0118BF5FEA1C1CE0D1AF
:100A4800FD2A3FF650AF8B4240EBC25008BF20F062
:100A5800010070470CF0004C4CEA50207F32C2BFB6
:100A6800D2F1FF0340EAC250704740F400004FF053
:100A78000003013A37E792F0000F00F0004C02BF84
:100A8800400010F4000F013AF9D040EA0C0093F04E
:100A9800000F01F0004C02BF490011F4000F013BA8
:100AA800F9D041EA0C0195E70CEAD15392EA0C0F10
:100AB80008D142027FF47DAF93EA0C0F7FF470AF48
:100AC800084676E793EA0C0F04D14B023FF44CAF8B
:100AD80008466EE730F0004C18BF31F0004CCAD120
:100AE80030F000427FF45CAF31F000437FF43CAF5C
:100AF8005FE700BF4FF0FF3C06E000BF4FF0010C7E
:100B080002E000BF4FF0010C4DF804CD4FEA40025F
:100B18004FEA41037FEA226C18BF7FEA236C11D0A9
:100B280001B052EA530C18BF90EA010F58BFB2EB5C
:100B3800030088BFC81738BF6FEAE17018BF40F0DC
:100B4800010070477FEA226C02D15FEA402C05D190
:100B58007FEA236CE4D15FEA412CE1D05DF8040B15
:100B6800704700BF844608466146FFE70FB5FFF7A8
:100B7800C9FF002848BF10F1000F0FBD4DF808ED60
:100B8800FFF7F4FF0CBF012000205DF808FB00BF51
:100B98004DF808EDFFF7EAFF34BF012000205DF8AB
:100BA80008FB00BF4DF808EDFFF7E0FF94BF0120F8
:100BB80000205DF808FB00BF4DF808EDFFF7D2FFF5
:100BC80094BF012000205DF808FB00BF4DF808ED38
:100BD800FFF7C8FF34BF012000205DF808FB00BF05
:100BE8004FEA4002B2F1FE4F0FD34FF09E03B3EB32
:100BF80012620DD94FEA002343F0004310F0004F72
:100C080023FA02F018BF404270474FF000007047C7
:100C180012F1610F01D1420205D110F0004008BF66
:100C28006FF0004070474FF00000704742000ED24E
:100C3800B2F1FE4F0BD34FF09E03B3EB126209D40F
:100C48004FEA002343F0004323FA02F070474FF0C5
:100C58000000704712F1610F01D1420202D14FF03A
:100C6800FF3070474FF00000704700BF7BB972B982
:100C78000029BEBF00204FF0004106E008BF002851
:100C88001CBF6FF000414FF0FF3000F0A9B9ADF183
:100C9800080C6DE904CE002909DB002B1ADB00F0F3
:100CA80035F8DDF804E0DDE9022304B0704740427E
:100CB80061EB4101002B1BDB00F028F8DDF804E0B4
:100CC800DDE9022304B0404261EB4101524263EB8B
:100CD80043037047524263EB430300F017F8DDF813
:100CE80004E0DDE9022304B0404261EB41017047B2
:100CF800524263EB430300F009F8DDF804E0DDE954
:100D0800022304B0524263EB430370472DE9F047D6
:100D1800089E0D4604468846002B4DD18A429446CB
:100D280068D9B2FA82F252B101FA02F3C2F1200193
:100D380020FA01F10CFA02FC41EA030894404FEA58
:100D48001C41B8FBF1F71FFA8CFE01FB178807FB63
:100D58000EF0230C43EA084398420AD91CEB03031C
:100D680007F1FF3580F01E81984240F21B81023F57
:100D780063441B1AB3FBF1F001FB103300FB0EFEBA
:100D8800A4B244EA0344A6450AD91CEB040400F1C2
:100D9800FF3380F00981A64540F206816444023899
:100DA8000021A4EB0E0440EA07401EB10023D44002
:100DB800C6E90043BDE8F0878B4208D9002E00F051
:100DC800EE800021C6E900050846BDE8F087B3FAC1
:100DD80083F100294AD1AB4202D3824200F2FC805F
:100DE800841A65EB030301209846002EE2D0C6E979
:100DF8000048DFE702B9FFDEB2FA82F2002A40F0CB
:100E08009180A1EB0C0001214FEA1C471FFA8CFED0
:100E1800B0FBF7F307FB1300250C45EA00450EFB72
:100E280003F0A84208D91CEB050503F1FF3802D2EC
:100E3800A84200F2CE8043462D1AB5FBF7F007FB17
:100E480010550EFB00FEA4B244EA0544A64508D995
:100E58001CEB040400F1FF3502D2A64500F2B6806F
:100E68002846A4EB0E0440EA03409EE7C1F12007A0
:100E78008B4022FA07FC4CEA030C25FA07FA4FEAE2
:100E88001C49BAFBF9F820FA07F309FB18AA8D40A8
:100E98001FFA8CFE1D4300FA01F308FB0EF02C0C20
:100EA80044EA0A44A04202FA01F20BD91CEB0404FA
:100EB80008F1FF3A80F08880A04240F28580A8F1CE
:100EC80002086444241AB4FBF9F009FB104400FB3F
:100ED8000EFEADB245EA0444A64508D91CEB04044D
:100EE80000F1FF356CD2A6456AD90238644440EA5D
:100EF8000840A0FB0295A4EB0E04AC42C846AE46DF
:100F080056D353D0002E69D0B3EB080264EB0E041D
:100F180022FA01F304FA07F71F43CC40C6E900742C
:100F2800002147E70CFA02FCC2F1200125FA01F37F
:100F38004FEA1C4720FA01F195400D43B3FBF7F146
:100F480007FB11331FFA8CFE280C40EA034001FB13
:100F58000EF3834204FA02F408D91CEB000001F1F5
:100F6800FF382FD283422DD902396044C01AB0FB12
:100F7800F7F307FB1300ADB245EA004503FB0EF09B
:100F8800A84208D91CEB050503F1FF3816D2A84280
:100F980014D9023B6544281A43EA014138E731462F
:100FA800304607E72F46E4E61846F9E64B45A9D24E
:100FB800B9EB020865EB0C0E0138A3E74346EAE7F4
:100FC800284694E74146D1E7D0467BE76444023897
:100FD80047E7023B65442FE7084606E73146E9E65E
:100FE800704700BF844641EA000313F0030349D168
:100FF800403A23D30B6803604B6843608B68836077
:10100800CB68C3600B6903614B6943618B6983617A
:10101800CB69C3610B6A03624B6A43628B6A836262
:10102800CB6AC3620B6B03634B6B43638B6B83634A
:10103800CB6BC36340304031403ADBD230320BD304
:101048000B6803604B6843608B688360CB68C36040
:1010580010301031103AF3D20C3205D351F8043B5A
:1010680040F8043B043AF9D2043208D0D2071CBF36
:1010780011F8013B00F8013B01D30B88038060465F
:10108800704700BF082A13D38B07B1D010F00303B1
:10109800AED0C3F10403D21ADB071CBF11F8013B21
:1010A80000F8013BA4D331F8023B20F8023B9FE74C
:1010B800043AD9D3013A11F8013B00F8013BF9D2BF
:1010C8000B7803704B7843708B7883706046704759
:1010D80070B54FF0FF0C4CF4E06C1CEA11541DBFC6
:1010E8001CEA135594EA0C0F95EA0C0F00F0DEF891
:1010F8002C4481EA030621EA4C5123EA4C5350EA76
:10110800013518BF52EA033541F4801143F48013C6
:1011180038D0A0FB02CE4FF00005E1FB02E506F057
:101128000042E0FB03E54FF00006E1FB03569CF0AC
:10113800000F18BF4EF0010EA4F1FF04B6F5007FB2
:1011480064F5407404D25FEA4E0E6D4146EB060624
:1011580042EAC62141EA55514FEAC52040EA5E50AD
:101168004FEACE2EB4F1FD0C88BFBCF5E06F1ED857
:10117800BEF1004F08BF5FEA500E50F1000041EB8E
:10118800045170BD06F0004646EA010140EA02003B
:1011980081EA0301B4EB5C04C2BFD4EB0C0541EA5D
:1011A800045170BD41F480114FF0000E013C00F372
:1011B800AB8014F1360FDEBF002001F0004170BD96
:1011C800C4F10004203C35DA0C341BDC04F11404AF
:1011D800C4F1200500FA05F320FA04F001FA05F23B
:1011E80040EA020001F0004221F0004110EBD37008
:1011F80021FA04F642EB06015EEA430E08BF20EA34
:10120800D37070BDC4F10C04C4F1200500FA04F3D6
:1012180020FA05F001FA04F240EA020001F0004168
:1012280010EBD37041F100015EEA430E08BF20EADB
:10123800D37070BDC4F1200500FA05F24EEA020E23
:1012480020FA04F301FA05F243EA020321FA04F052
:1012580001F0004121FA04F220EA020000EBD37009
:101268005EEA430E08BF20EAD37070BD94F0000F09
:101278000FD101F00046400041EB010111F4801F3D
:1012880008BF013CF7D041EA060195F0000F18BFEE
:10129800704703F00046520043EB030313F4801F2A
:1012A80008BF013DF7D043EA0603704794EA0C0FE4
:1012B8000CEA135518BF95EA0C0F0CD050EA4106FA
:1012C80018BF52EA4306D1D181EA030101F0004177
:1012D8004FF0000070BD50EA410606BF104619469F
:1012E80052EA430619D094EA0C0F02D150EA0136AB
:1012F80013D195EA0C0F05D152EA03361CBF1046EC
:1013080019460AD181EA030101F0004141F0FE418A
:1013180041F470014FF0000070BD41F0FE4141F40E
:10132800780170BD70B54FF0FF0C4CF4E06C1CEA0E
:1013380011541DBF1CEA135594EA0C0F95EA0C0FC3
:1013480000F0A7F8A4EB050481EA030E52EA03357E
:101358004FEA013100F088804FEA03334FF080559F
:1013680045EA131343EA12634FEA022245EA1115CC
:1013780045EA10654FEA00260EF000419D4208BF7D
:10138800964244F1FD0404F5407402D25B084FEA2A
:101398003202B61A65EB03055B084FEA32024FF4D6
:1013A80080104FF4002CB6EB020E75EB030E22BF33
:1013B800B61A754640EA0C005B084FEA3202B6EBF3
:1013C800020E75EB030E22BFB61A754640EA5C00A2
:1013D8005B084FEA3202B6EB020E75EB030E22BF32
:1013E800B61A754640EA9C005B084FEA3202B6EB33
:1013F800020E75EB030E22BFB61A754640EADC00F2
:1014080055EA060E18D04FEA051545EA16754FEA53
:1014180006164FEAC30343EA52734FEAC2025FEA71
:101428001C1CC0D111F4801F0BD141EA00014FF000
:1014380000004FF0004CB6E711F4801F04BF0143D1
:101448000020B4F1FD0C88BFBCF5E06F3FF6AFAEED
:10145800B5EB030C04BFB6EB020C5FEA500C50F17D
:10146800000041EB045170BD0EF0004E4EEA113100
:1014780014EB5C04C2BFD4EB0C0541EA045170BD07
:1014880041F480114FF0000E013C90E645EA060E4B
:101498008DE60CEA135594EA0C0F08BF95EA0C0F79
:1014A8003FF43BAF94EA0C0F0AD150EA01347FF4C1
:1014B80034AF95EA0C0F7FF425AF104619462CE798
:1014C80095EA0C0F06D152EA03353FF4FDAE1046FB
:1014D800194622E750EA410618BF52EA43067FF44C
:1014E800C5AE50EA41047FF40DAF52EA43057FF4DC
:1014F800EBAE12E74FF0FF3C06E000BF4FF0010CE7
:1015080002E000BF4FF0010C4DF804CD4FEA410C4A
:101518007FEA6C5C4FEA430C18BF7FEA6C5C1BD017
:1015280001B050EA410C0CBF52EA430C91EA030F98
:1015380002BF90EA020F0020704710F1000F91EAF5
:10154800030F58BF994208BF90422CBFD8176FEAC3
:10155800E37040F0010070474FEA410C7FEA6C5C91
:1015680002D150EA013C07D14FEA430C7FEA6C5C98
:10157800D6D152EA033CD3D05DF8040B704700BFC4
:101588008446104662468C461946634600E000BF12
:1015980001B5FFF7B7FF002848BF10F1000F01BDE4
:1015A8004DF808EDFFF7F4FF0CBF012000205DF8AF
:1015B80008FB00BF4DF808EDFFF7EAFF34BF012034
:1015C80000205DF808FB00BF4DF808EDFFF7E0FFCD
:1015D80094BF012000205DF808FB00BF4DF808ED1E
:1015E800FFF7CEFF94BF012000205DF808FB00BF85
:1015F8004DF808EDFFF7C4FF34BF012000205DF867
:1016080008FB00BF4FEA410C7FEA6C5C02D150EA4C
:10161800013C0AD14FEA430C7FEA6C5C02D152EAE2
:10162800033C02D14FF0000070474FF001007047B3
:101638004FEA410212F5001215D211D56FF47873F2
:10164800B3EB625212D94FEAC12343F0004343EA95
:10165800505311F0004F23FA02F018BF4042704770
:101668004FF00000704750EA013005D111F00040FA
:1016780008BF6FF0004070474FF00000704700BF90
:1016880053B94AB9002908BF00281CBF4FF0FF31E1
:101698004FF0FF30FFF7A4BCADF1080C6DE904CEA4
:1016A800FFF734FBDDF804E0DDE9022304B07047FE
:1016B80090F90030002B01DD002070470FDB90F916
:1016C8000130002B01DD012070470ADB90F9023060
:1016D800002B08DC01DB0720704706207047042038
:1016E8007047052070470220704738B50546FFF758
:1016F800DFFF0446E81CFFF7DBFF44EAC00424B21E
:10170800A81DFFF7D5FF44EA801080B238BD10B598
:1017180088B002A905A801F0EDFD032839D101A878
:1017280001F042F8019C0598FFF740F82146FFF7C1
:1017380091F8FFF755FA05900698FFF737F8214614
:10174800FFF788F8FFF74CFA06900798FFF72EF88E
:101758002146FFF77FF8FFF743FA079005A801F045
:101768001BFF0DF1020001F045F8BDF80220029BB5
:1017780002FB03F30293039B02FB03F30393049B13
:1017880002FB03F3049302A801F08EFF002008B0C7
:1017980010BD4FF0FF30FAE700B583B001A801F0A3
:1017A80071FB38BB782001F0EDFA30BB782001F0EE
:1017B8004FF828BB642001F08DFA20BB01F03AFEF7
:1017C80020BB1B48FFF791FF01F040FE08BB40F229
:1017D800731002F003FAF8B9642001F0E1FFF0B9E0
:1017E800FFF795FFF0B9012001F02CFDE8B903B02F
:1017F8005DF804FB4FF0FF30F9E76FF00100F6E702
:101808006FF00200F3E76FF00300F0E76FF00400F9
:10181800EDE76FF00500EAE76FF00600E7E76FF025
:101828000700E4E76FF00800E1E76FF00900DEE782
:1018380000000020000000002DE9F04F91B0814623
:10184800049193460DF1190301930DF11A030093C6
:1018580007AB08AA0CA90EA802F0CCFA039000283E
:1018680040F0C880BDF81A3013F4807F00F0C680BD
:101878000898FEF79BFF4FF04251FEF7EBFF074633
:101888000998FEF793FF4FF04251FEF7E3FF054634
:101898000A98FEF78BFF4FF04251FEF7DBFF044634
:1018A8000B98FEF783FF4FF04251FEF7D3FF064631
:1018B8004FF040412846FEF7CDFF05903146FEF730
:1018C800C9FF804639463846FEF7BCFE82462146A7
:1018D800FEF7C0FF01464046FEF7B4FEFEF704FEE1
:1018E8000CF06AFD48A3D3E90023FFF7F1FBFEF7EC
:1018F80053FEC9F8000021462046FEF7A3FE8046A5
:101908003146FEF7A7FF814629465046FEF7A2FF5B
:1019180001464846FEF796FE824629460598FEF798
:1019280099FF814621464046FEF794FF0146484606
:10193800FEF786FE4FF07E51FEF784FEFEF7D4FDDB
:10194800804689465046FEF7CFFD42464B460CF08E
:101958005BFD2DA3D3E90023FFF7BAFBFEF71CFEBE
:10196800049B186021462846FEF774FF80463146DE
:101978003846FEF76FFF01464046FEF763FE014614
:10198800FEF760FE804639463846FEF763FF074695
:1019980029462846FEF75EFF01463846FEF752FE06
:1019A800054621462046FEF755FF01462846FEF724
:1019B80047FE044631463046FEF74CFF01462046B6
:1019C800FEF73EFEFEF790FD04460D464046FEF744
:1019D8008BFD22462B460CF017FD0BA3D3E9002301
:1019E800FFF776FBFEF7D8FDCBF80000039811B09F
:1019F800BDE8F08F4FF0FF330393F7E76FF0010373
:101A08000393F3E7AFF300806666666666A64C400C
:101A1800F0B587B007462F4B5B681978052302930A
:101A28000423019305AB009301230D2299402A4812
:101A380003F014FE00284BD104469DF81420D21060
:101A480002F01C029DF81710C1F301131A438DF818
:101A580010209DF81520D21002F01C02C1F381035A
:101A68001A438DF811209DF81630DB1003F01C0383
:101A780001F003010B438DF8123018E007EB8405E1
:101A8800164B47F8243004E015492868FEF7E2FEB3
:101A9800286006F118030DEB030212F8083C013B1D
:101AA800DBB202F8083C002BEED10134E4B2022C80
:101AB8000BD8264604F118036B4413F8083C002B96
:101AC800DCD1002347F82430EFE7002007B0F0BD51
:101AD8000720FBE70C0000201C0A00207B14AE3E08
:101AE8001D5A843F2DE9F04385B08146884601A8F8
:101AF800FFF78EFF00273C460DE021493046FFF7EF
:101B080047F820B91F493046FFF760F810B10123A4
:101B1800A3401F430134022C2EDCA50059F82400F1
:101B280058F82430C01A0028B8BF4042FEF73EFEDD
:101B38004FF05E51FEF78EFE064605F110030DEBE1
:101B4800030555F80C5C00212846FFF717F8002814
:101B5800D3D129463046FEF731FF4FF07E51FEF7CC
:101B68006FFD20F000400849FFF730F80028D1D079
:101B78000123A3401F43CDE7384605B0BDE8F083F5
:101B88009A99993E3333733F5C8F423E2DE9F04179
:101B980086B0074688463B4B5B6819780523029355
:101BA8000323019305AB009301230D229940364886
:101BB80003F054FD00285FD19DF8143003F01F0393
:101BC8008DF814309DF8153003F01F038DF815308B
:101BD8009DF8163003F01F038DF8163000263446A2
:101BE80026E02A49FEF736FE04F118030DEB03023E
:101BF80012F8043C013BDBB202F8043C002BF0D1A4
:101C080001462846FEF7DAFE4FF07E51FEF718FD32
:101C180020F000401E49FEF7D9FF40B10123A34040
:101C28001E4304E01B48DFE70123A3401E430134A1
:101C3800022C22DC57F8240058F82430C01A002857
:101C4800B8BF4042FEF7B2FD4FF05E51FEF702FE0C
:101C5800054604F118036B4413F8043C002BE1D14A
:101C68000D49FEF795FF0028DED10C492846FEF7FE
:101C7800ADFF0028DBD0D7E70726304606B0BDE821
:101C8800F08100BF0C0000201C0A002054E3853FAF
:101C9800295C0F3E0000C841000020410000D242EC
:101CA80000B587B0294B93F82430FBB1D0B102239B
:101CB8008DF81730254B5A6811781B685A7C052314
:101CC8000293012301930DF11700009099402048D9
:101CD80003F012FC78BB9DF817201C4B5A7407B010
:101CE8005DF804FB00238DF81730E3E7174B9B7A68
:101CF80023B310B1154B5B7C1BBBC0B101238DF81E
:101D08001730124B5A6811781B685A7C05230293C6
:101D1800012301930DF11700009099400C4803F03E
:101D2800EBFB80B99DF81720084B5A74D7E70023BE
:101D38008DF81730E5E74FF0FF30D0E74FF0FF3070
:101D4800CDE70020CBE74FF0FF30C8E70C000020BC
:101D58001C0A0020F0B58DB005460C461646012336
:101D68008DF8243000228DF82520A34A516809787F
:101D78001268527D052002900220019009A8009067
:101D880099409E4803F0B8FB002840F02C82C820F8
:101D980002F00EFC00238DF82430974B5A68117816
:101DA8001B685A7C052302930123019309A800901C
:101DB8009940924803F0A0FB002840F017828E4B10
:101DC8005A6811781B685A790523029301230193F5
:101DD80009A800909940894803F08EFB002840F03C
:101DE8000882854B5A6811781B685A7D052302932F
:101DF8000123019309A800909940804803F07CFBD7
:101E0800002840F0F9817C4B5A6811781B689A7E4B
:101E1800052302930123019309A80090994077486C
:101E280003F06AFB002840F0EA81734B5A68117886
:101E38001B681A79052302930123019309A80090CE
:101E480099406E4803F058FB002840F0DB810C23D2
:101E58008DF82430684B5A6811781B681A79052365
:101E680002930123019309A800909940634803F065
:101E780043FB002840F0C9810F2002F099FB5E4B1C
:101E88009A6A527A8DF824205A6811781B689A78D1
:101E9800052302930123019309A80090994057480C
:101EA80003F02AFB002840F0B381534B9A6A127A58
:101EB8008DF824205A6811781B685A7805230293F4
:101EC8000123019309A8009099404C4803F014FBA2
:101ED800002840F0A081002E00F0A580464B9B6AA8
:101EE8009B7A63F01F038DF82430434B5A681178AE
:101EF8001B689A79052302930123019309A800908E
:101F080099403E4803F0F8FA002840F08781002EF7
:101F180000F08F80384B9B6ADB7A63F01F038DF8E3
:101F28002430354B5A6811781B68DA7905230293F7
:101F38000123019309A800909940304803F0DCFA86
:101F4800002840F06E81002E77D140238DF8243090
:101F5800294B5A6811781B681A79052302930123C3
:101F6800019309A800909940244803F0C5FA002875
:101F780040F05A8178238DF824301F4B5A68117825
:101F88001B685A79052302930123019309A800903D
:101F980099401A4803F0B0FA002840F048813220EE
:101FA80002F006FB00238DF82430134B5A68117891
:101FB8001B685A79052302930123019309A800900D
:101FC80099400E4803F098FA002840F033810A4BF4
:101FD8005A6811781B681A7B052302930223019320
:101FE80009AB009301239940044803F037FB0646E8
:101FF800002840F0228103E00C0000201C0A002089
:102008009DF824309DF8257047EA03278C4BA3FBE5
:102018000737C7F3C7070023AB606B602B60A3606B
:102028006360236057E0874B9B6A9B7A8DF8243066
:102038005BE718238DF8243073E7C82002F0B8FA5C
:1020480083E79DF824309DF8251041EA032109B261
:10205800ADF814109DF826309DF8272042EA032297
:1020680012B2ADF816209DF828009DF8293043EAF1
:1020780000231BB2ADF81830206801442160616864
:102088000A446260A2681344A3609DF82A309DF850
:102098002B1041EA032109B2ADF81C109DF82C3031
:1020A8009DF82D2042EA032212B2ADF81E209DF8B9
:1020B8002E009DF82F3043EA00231BB2ADF82030E4
:1020C80028680144296069680A446A60AA68134458
:1020D800AB600136F6B2BE4215D25A4B5A68117837
:1020E8001B685A7B052302930C23019309AB0093C9
:1020F80001239940544803F0B1FA0028A1D04FF0C9
:10210800FF300DB0F0BD29688322002308040914AC
:10211800FEF7ACFD00263A463346FEF7A7FD2860D9
:1021280069688322002308040914FEF79FFD3A46D4
:102138003346FEF79BFD6860A968832200230804E4
:102148000914FEF793FD3A463346FEF78FFDA86063
:102158002068031400041946B3422DDBC00A3A462E
:10216800334640EA4150C912FEF780FD206060689E
:10217800031400041946002B24DBC00A3A463346F0
:1021880040EA4150C912FEF771FD6060A06803146F
:1021980000041946002B1BDBC00A3A46334640EAC6
:1021A8004150C912FEF762FDA060002816DDA0F5B7
:1021B8008030A0600020A4E740F2FF72801843F14D
:1021C8000001CBE740F2FF72801843F10001D4E729
:1021D80040F2FF72801843F10001DDE700F580301E
:1021E800A06000208DE74FF0FF308AE74FF0FF3006
:1021F80087E74FF0FF3084E74FF0FF3081E74FF07B
:10220800FF307EE74FF0FF307BE74FF0FF3078E795
:102218004FF0FF3075E74FF0FF3072E74FF0FF30B7
:102228006FE74FF0FF306CE74FF0FF3069E74FF092
:10223800FF3066E74FF0FF3063E74FF0FF3060E7AD
:10224800ABAAAAAA0C0000201C0A0020A04B9B7A6B
:10225800002B00F01B8100B587B000238DF81730E4
:102268009B4B5A6811781B685A7C052302930123FB
:1022780001930DF1170000909940964803F03CF93E
:10228800002840F00681924B5A6811781B685A79E9
:1022980005230293012301930DF117000090994043
:1022A8008C4803F029F9002840F0F680884B5A68DA
:1022B80011781B681A7905230293012301930DF104
:1022C800170000909940834803F016F9002840F061
:1022D800E6807F4B93F82430002B6DD00C238DF8CB
:1022E80017307B4B5A6811781B681A7905230293BB
:1022F800012301930DF1170000909940754803F0F0
:10230800FBF8002840F0CE80322002F051F9C023BB
:102318008DF817306E4B9B7A13F0010F02D0E02333
:102328008DF817306A4B5A6811781B681A7905239B
:102338000293012301930DF117000090994065481D
:1023480003F0DAF8002840F0B080614B5B7C002B8A
:102358002ED002238DF817305D4B5A6811781B6810
:102368005A7C05230293012301930DF11700009075
:102378009940584803F0C0F8002840F0998000239D
:102388008DF81730524B5A6811781B685A79052313
:102398000293012301930DF11700009099404D48D5
:1023A80003F0AAF8002840F0868007B05DF804FB27
:1023B80000238DF81730CFE704238DF81730444BEE
:1023C8005A6811781B681A7905230293012301932F
:1023D8000DF11700009099403E4803F08DF8002851
:1023E8006CD13B4B9B7C23B9394B9B7A13F0010F83
:1023F80044D140238DF81730354B5A6811781B6843
:102408001A7905230293012301930DF11700009017
:102418009940304803F070F8002852D1322002F079
:10242800C7F82B4B5B7C002B2CD001238DF8173081
:10243800274B5A6811781B685A7C0523029301239D
:1024480001930DF1170000909940224803F054F8C9
:10245800002839D11E484368197850F8103B5A793A
:10246800052302930123019300909940194803F032
:1024780043F8002899D04FF0FF3096E760238DF895
:102488001730B9E700238DF81730D1E74FF0FF3048
:1024980070474FF0FF3088E74FF0FF3085E74FF087
:1024A800FF3082E74FF0FF307FE74FF0FF307CE7E7
:1024B8004FF0FF3079E74FF0FF3076E74FF0FF300D
:1024C80073E74FF0FF3070E74FF0FF306DE700BF64
:1024D8000C0000201C0A00200D4B1B7A032B13D87C
:1024E800DFE803F002060A0EFA2303800020704793
:1024F8004FF4FA730380F9E74FF47A730380F5E732
:102508004FF4FA630380F1E700230380EEE700BF8E
:102518000C000020274B9B7A002B42D000B587B0D7
:10252800B0F57A7F39D00BD8FA2813D0B0F5FA7FF6
:1025380003D108238DF817300FE04FF0FF3029E062
:10254800B0F5FA6F03D118238DF8173005E04FF076
:10255800FF301FE000238DF81730164B1B7A9DF8CB
:102568001720B3EBD20F1FD0124B5A6811781B6893
:102578009A7905230293012301930DF11700009026
:1025880099400D4802F0B8FF80B99DF81730DB0874
:10259800084A137207B05DF804FB10238DF8173052
:1025A800DBE74FF0FF3070470020F3E74FF0FF30D4
:1025B800F0E700BF0C0000201C0A00200F4B5B7ADC
:1025C800032B16D8DFE803F0020C0F120223037066
:1025D8000A4BDB7C83B103785B00037000207047F3
:1025E80004230370F4E708230370F1E71023037052
:1025F800EEE74FF0FF307047002070470C000020D6
:10260800264B9B7A002B3BD000B587B002380E28AA
:1026180039D8DFE800F00838293838382D38383804
:1026280038383838310000238DF817301B4B5B7A67
:102638009DF81720B3EBD20F2AD0184B5A6811789F
:102648001B68DA7905230293012301930DF1170022
:1026580000909940124802F04FFFD8B99DF8173002
:10266800DB080E4A537210E008238DF81730DDE7B7
:1026780010238DF81730D9E718238DF81730D5E7D0
:102688004FF0FF3070474FF0FF3007B05DF804FBA4
:102698000020FAE74FF0FF30F7E700BF0C000020FA
:1026A8001C0A00200F4BDB7A013B052B17D8DFE80B
:1026B80003F003070A0D1013BC23038000207047A2
:1026C80062230380FAE72A230380F7E714230380B1
:1026D800F4E70A230380F1E705230380EEE70023EC
:1026E8000380EBE70C000020264B9B7A002B40D0A0
:1026F80000B587B0BB2820D901238DF81730214BAE
:10270800DA7A9DF817309A4236D01E4B5A681178FB
:102718001B689A7805230293012301930DF1170092
:1027280000909940184802F0E7FE38BB9DF8172042
:10273800144BDA7207B05DF804FB612803D9022351
:102748008DF81730DBE7292803D903238DF81730D4
:10275800D5E7132803D904238DF81730CFE70928C4
:1027680003D905238DF81730C9E706238DF81730EC
:10277800C5E74FF0FF3070470020DBE74FF0FF3030
:10278800D8E700BF0C0000201C0A0020054B93F876
:10279800243023B9034BDB890380002070474FF0B6
:1027A800FF3070470C0000200D4B1B7A032B13D809
:1027B800DFE803F002060A0E0A4B036000207047A8
:1027C800094B036000207047084B036000207047E6
:1027D800074B0360002070474FF0FF30704700BF81
:1027E8000C000020000003430000834233330342FF
:1027F80033338341114B5B7A032B1AD8DFE803F09C
:10280800020D11154FF4804303800C4BDB7C9BB108
:1028180003885B0803800020704741F69C7303809F
:10282800F3E74FF480530380EFE74FF4006303802E
:10283800EBE74FF0FF307047002070470C00002096
:10284800024B1B7C03700020704700BF0C00002067
:1028580070B5174B93F824302BBB00F0FE04144BD3
:102868009B7A13B3124A167C23401374A3420BD0ED
:102878004FF0FF3514B90E4B1B7D3BB10120FFF71C
:102888000FFA3CB9284670BD0025F3E70020FFF792
:1028980007FAF6E7FFF7DAFC0028F3D0044B1E74BA
:1028A8004FF0FF35EEE70025ECE74FF0FF35E9E79D
:1028B8000C000020374B93F82430002B5BD0F0B588
:1028C80087B005460F461646324B9B7A002B55D0EB
:1028D800304B5A6811781B681A7B05230293022330
:1028E800019305AB0093012399402B4802F0B6FEF3
:1028F800002846D19DF814009DF8154044EA0024AC
:10290800AC422ED3234B5B685A88B4EB520F13D9D1
:102918001978204B1B68DA7C052302930123019365
:1029280005A8009099401C4802F098FE60BB9DF8ED
:10293800143013F0100F19D1164B5A6811781B6810
:102948005A7B052302930195009701239940124869
:1029580002F084FED8B9B4FBF5F4013C347007B03A
:10296800F0BD002333704FF0FF30F8E7FFF76EFC3F
:102978006FF00100F3E74FF0FF3070474FF0FF3082
:10298800EDE74FF0FF30EAE74FF0FF30E7E74FF0B1
:10299800FF30E4E70C0000201C0A00206B4B9B7CF6
:1029A800834200F0C18010B586B00446002857D095
:1029B800664B5A6811781B681A790523029301231C
:1029C80001930DF1170000909940614802F046FE0E
:1029D800002840F0AB809DF8173023F020038DF8D5
:1029E80017305A4B5A6811781B681A7905230293D5
:1029F800012301930DF1170000909940544802F00B
:102A08007BFD002840F09580032001F0D1FD0223D2
:102A18008DF817304D4B93F8223013B182238DF87F
:102A280017304A4B93F823302BB19DF8173043F0F9
:102A380030038DF81730454B5A6811781B68DA7DDA
:102A480005230293012301930DF11700009099408B
:102A58003F4802F051FD002856D04FF0FF3056E0B5
:102A68003A4B5A6811781B681A7905230293012397
:102A780001930DF1170000909940354802F0EEFDE2
:102A8800002859D1314B9B7A13F0010F41D09DF8A2
:102A9800173043F020038DF817302C4B5A68117803
:102AA8001B681A7905230293012301930DF117007E
:102AB80000909940264802F01FFD00283FD10320CE
:102AC80001F076FD214B93F822304BB380238DF82B
:102AD80017301E4B93F823302BB19DF8173043F075
:102AE80030038DF81730194B5A6811781B68DA7D56
:102AF80005230293012301930DF1170000909940DB
:102B0800134802F0F9FCE8B9104B9C74002006B099
:102B180010BD9DF8173023F020038DF81730BCE75F
:102B280000238DF81730D4E7002070474FF0FF30AE
:102B3800EDE74FF0FF30EAE74FF0FF30E7E74FF0FF
:102B4800FF30E4E74FF0FF30E1E700BF0C00002062
:102B58001C0A00201E4B93F82330834233D010B553
:102B680086B0044658B330238DF81730184B9B7C39
:102B78002BB19DF8173043F002038DF81730144B32
:102B880093F822302BB19DF8173063F07F038DF84E
:102B980017300F4B5A6811781B68DA7D05230293AA
:102BA800012301930DF1170000909940094802F0A4
:102BB800A3FC50B9064B83F8234006B010BD002390
:102BC8008DF81730D2E7002070474FF0FF30F4E758
:102BD8000C0000201C0A002028286DD810B586B0EB
:102BE8000446F0B90020FFF7B5FF00238DF8143034
:102BF80007238DF81530354B5A6811781B685A7DB4
:102C0800052302930223019305AB00930123994006
:102C18002F4802F071FC002851D12C4B187506B0D2
:102C280010BD0120FFF796FF20238DF81430012CEA
:102C38002DD0052C32D9142C37D802238DF8153015
:102C48000A20FFF751FD9DF815309B0143F007035B
:102C58008DF815301D4B5A6811781B685A7D05236D
:102C680002930223019305AB00930123994018486E
:102C780002F042FC30BB154B08229A7200241C73E8
:102C880001221A752046FFF7E3FD2046C7E7002317
:102C98008DF815300520FFF727FDD4E701238DF8BF
:102CA80015300520FFF720FDCDE703238DF81530FB
:102CB8001420FFF719FDC6E74FF0FF3070474FF0BB
:102CC800FF30ACE74FF0FF30A9E700BF0C00002051
:102CD8001C0A0020294B9B7A002B46D010B586B0E1
:102CE8000446264B93F82430002B41D1234B1B7DFF
:102CF80033B1431E9BB2272B0AD90020FFF76CFF84
:102D0800032C0AD9B4F57A7F08D94FF47A7405E010
:102D1800C0B2FFF761FF002025E004244FF47A7069
:102D280090FBF4F4013C8DF81740144B5A68117865
:102D38001B685A7805230293012301930DF11700AC
:102D4800009099400E4802F0D7FBA0B99DF81700F3
:102D5800431C4FF47A7090FBF3F0084BD88140087D
:102D6800FFF7C2FC002006B010BD4FF0FF307047DF
:102D78004FF0FF30F7E74FF0FF30F4E70C0000208A
:102D88001C0A002010B586B0044610F0700F5CD005
:102D980001238DF81730394B5A6811781B685A7D12
:102DA80005230293012301930DF117000090994028
:102DB800334802F0A1FB002850D19DF8173003F0EA
:102DC800BF032E4A137300238DF8173014F0400FF9
:102DD80002D104238DF8173014F0200F05D19DF887
:102DE800173043F002038DF8173014F0100F05D197
:102DF8009DF8173043F001038DF8173014F0080FD1
:102E080005D19DF8173043F038038DF817301B4B68
:102E18005A6811781B689A7D052302930123019350
:102E28000DF1170000909940154802F065FBD8B9DC
:102E38000CB1082C1ED1114B9C7200241C75322039
:102E480001F0B6FB204606B010BD18B100238DF87E
:102E58001730A0E740238DF817309CE7074B002276
:102E68009A724FF0FF30EEE7044B00229A724FF04F
:102E7800FF30E8E70020FFF76DFEDCE70C000020DC
:102E88001C0A002010B586B080238DF810306F4BD7
:102E98005A6811781B685A7D052302930123019310
:102EA80004A8009099406A4802F026FB002840F0E8
:102EB800A880642001F07CFB00238DF81030634B60
:102EC8005A6811781B685A7D0523029301230193E0
:102ED80004A8009099405E4802F00EFB002840F0DC
:102EE80093805A4B5A6811781B685A7E05230293BF
:102EF8000623019304AB009301239940544802F040
:102F0800ADFB002840F083809DF815309B0003F04E
:102F180004039DF81320520002F0020213439DF9A6
:102F2800112002F0010213434CD0012B46D0022B92
:102F380070D1464B0022DA74444BFF229A721A72FF
:102F48005A72DA724FF6FF71D9811A749A74012293
:102F58001A7383F82220002283F823205A751A75E1
:102F6800C3F81620C3F81A20C3F81E2083F82420BB
:102F780083F82520DA844FF4FA60FFF7CBFA0028AB
:102F880051D10220FFF73CFB00284FD12A20FFF740
:102F9800ABFB00284DD13220FFF79CFE00284BD117
:102FA800FFF756FC00284AD1FFF7F8FC0446002832
:102FB80048D1FFF7E7FE204606B010BD234B01229B
:102FC800DA74B9E7214B5A6811781B68DA78052357
:102FD80002930123019304A8009099401C4802F031
:102FE8003DFBD0B99DF8103013F00F0318D0042B17
:102FF80003D0164B0022DA749EE7144B0122DA74D0
:103008009AE74FF0FF34D6E74FF0FF34D3E74FF09D
:10301800FF34D0E74FF0FF34CDE74FF0FF34CAE775
:103028004FF0FF34C7E74FF0FF34C4E74FF0FF34E9
:10303800C1E74FF0FF34BEE74FF0FF34BBE74FF076
:10304800FF34B8E74FF0FF34B5E700BF0C000020AD
:103058001C0A0020002A34D030B587B00C4615462B
:103068001F4B9B7A002B2FD0030A8DF81430C0B267
:103078008DF8150008441A4B5B685A89904226DC83
:103088001978174B1B68DA7E0523029302230193F4
:1030980005AB009301239940124802F02DFAC8B9F4
:1030A8000F4B5A6811781B681A7E05230293019406
:1030B8000095012399400B4802F01EFA68B907B041
:1030C80030BD4FF0FF3070474FF0FF30F7E74FF05B
:1030D800FF30F4E74FF0FF30F1E74FF0FF30EEE755
:1030E8000C0000201C0A0020002A34D030B587B01C
:1030F8000C4615461F4B9B7A002B2FD0030A8DF8E0
:103108001430C0B28DF8150008441A4B5B685A8910
:10311800904226DC1978174B1B68DA7E0523029348
:103128000223019305AB009301239940124802F052
:10313800E3F9C8B90F4B5A6811781B681A7E052342
:10314800029301940095012399400B4802F086FAF6
:1031580068B907B030BD4FF0FF3070474FF0FF300F
:10316800F7E74FF0FF30F4E74FF0FF30F1E74FF0AB
:10317800FF30EEE70C0000201C0A00202DE9F04F7C
:103188008BB09A462D4B93F82530002B44D1074637
:1031980088469146002942D00024BC421CD23E1BDE
:1031A800102EA8BF1026B5B208EB040B5A462946C4
:1031B8002046FFF74FFF002834D106AA29462046AB
:1031C800FFF792FF88BB2A4606A9584603F084FAFF
:1031D80070BB2C44A4B2E0E74FEA19238DF81430F1
:1031E8008DF81590154B5A6811781B685A7F05237E
:1031F80002930223019305AB0093012399401048E1
:1032080002F07AF9B8B90D4B012283F82520A3F80A
:1032180026A00BB0BDE8F08F4FF0FF30F9E74FF074
:10322800FF30F6E74FF0FF30F3E74FF0FF30F0E7FD
:103238006FF00100EDE74FF0FF30EAE70C000020E7
:103248001C0A0020294B93F82430834249D070B5DA
:1032580086B050B3254B93F82530002B43D000207F
:10326800FEF71EFD0020FFF799FB204EF08CFFF7BC
:1032780031FD00248DF817407368197805230293EF
:10328800012501950DF1170300932B462322A94030
:10329800174802F031F986F824502846FEF700FD59
:1032A800FEF7D4FF204606B070BD0020FEF7F8FCFC
:1032B8000E4D2B7C8DF817306B6819780523029317
:1032C800012301930DF11702009223229940084827
:1032D80002F012F9002485F82440FEF7B7FF2046D3
:1032E800E1E7002070474FF0FF30DCE70C000020DA
:1032F8001C0A00202DE9F04188B005460E463D4BDA
:1033080093F82470FFB901A8FFF7E6F80DF107005C
:10331800FFF754F96846FFF7C5F90DF10200FFF70A
:1033280035FA344B93F80A800DF10600FFF788FA56
:103338000024012C0CDC002231462846FEF70AFD49
:1033480030B10134F5E70020FFF77CFF0127DAE709
:10335800022C1FD00024012C07DC012202A905A899
:10336800FEF7F8FC08B10134F5E7022C14D002A9E5
:103378003046FEF7B7FBC6B205A92846FEF706FC9D
:1033880010F0FF0F04D000243EB944F0020404E01A
:103398000124F9E7002400E00024164BFF221A72EA
:1033A8005A72DA724FF6FF71D9819A721A74012231
:1033B8001A73BDF80400FFF7ADF89DF80700FFF792
:1033C8001FF9BDF80000FFF78FF9BDF80200FFF7FD
:1033D80081FC4046FFF7D6FC9DF80600FFF738FA57
:1033E8001FB9204608B0BDE8F0810120FFF72AFF89
:1033F800F7E700BF0C00002038B50446C5784378CD
:1034080013F0010F09D005F03F00C00805F00701CF
:103418000131074B1B6803B19847637813F0080F15
:1034280004D0034B5B680BB1A8099847002038BD4E
:103438000C0A002008B5C8234FF48062024940F600
:10344800F630FFF79BFE08BD84EF000810B586B084
:1034580004464C4B1B68ADF80C301B0C8DF80E3035
:10346800494B1B68ADF808301B0C8DF80A30474BE8
:103478001B68ADF804301B0C8DF80630444B1B68F4
:10348800ADF800301B0C8DF8023000F0030101F19B
:1034980018030DEB030111F80C3C8DF81430C0F340
:1034A800C10202F118030DEB030212F80C3C8DF86F
:1034B8001530C0F3811318336B4413F80C0C8DF8D6
:1034C800160011F8101C8DF8101012F8102C8DF839
:1034D800112013F8103C8DF8123005AA032140F290
:1034E8002640FFF7B7FD002840D104AA032140F287
:1034F8002A40FFF7AFFD00283BD1019BADF81430FF
:103508001B0C8DF81630009BADF810301B0C8DF895
:10351800123014F0040F05D037238DF81430272308
:103528008DF8103014F0200F05D057238DF8153082
:1035380047238DF8113014F4807F05D077238DF858
:10354800163067238DF8123005AA03214FF48860DE
:10355800FFF780FD80B904AA032140F23140FFF74C
:1035680079FD60B90B4B1C8106B010BD4FF0FF30E0
:10357800FAE74FF0FF30F7E74FF0FF30F4E74FF08E
:10358800FF30F1E74CEF000850EF000854EF000857
:1035980058EF00080C0A002030B585B0404B1B8955
:1035A80003F0030250F82220019213F0040F01D017
:1035B80052420192C3F3C10250F82220029213F042
:1035C800200F01D052420292C3F3811250F82220F8
:1035D800039213F4807F01D052420392019BD817C3
:1035E800304AA3FB023102FB00119B0F43EA81031F
:1035F80001930299C817A1FB021502FB0055890F18
:1036080041EA85050295039CE017A4FB024102FBF1
:103618000012A40F44EA820403941A0E8DF80020C5
:10362800C3F307428DF80120C3F307228DF8022067
:103638008DF803306A4604214FF47470FFF70AFDD1
:1036480040BB2B0E8DF80030C5F307438DF80130D1
:10365800C5F307238DF802308DF803506A4604211C
:103668004FF47570FFF7F6FCB8B9230E8DF80030EB
:10367800C4F307438DF80130C4F307238DF80230F3
:103688008DF803406A4604214FF47670FFF7E2FC98
:1036980005B030BD4FF0FF30FAE74FF0FF30F7E7E5
:1036A8000C0A002009E3CA0210B588B004460DF1DF
:1036B8000600FFF79FF8BDF806C04FEACC3C00BFF4
:1036C800364B1A8902F0030354F82330059312F09D
:1036D800040F01D05B420593C2F3C10354F82330B1
:1036E800069312F0200F01D05B420693C2F38113B8
:1036F80054F82330079312F4807F01D05B4207937C
:103708000599CA17A1FB0C130CFB0233890F41EA78
:1037180083010591069AD017A2FB0C230CFB0033FA
:10372800920F42EA83020692079BDC17A3FB0C3038
:103738000CFB040C9B0F43EA8C030793080E8DF8CF
:103748000800C1F307408DF80900C1F307208DF880
:103758000A008DF80B10110E8DF80C10C2F30741FA
:103768008DF80D10C2F307218DF80E108DF80F207B
:103778001A0E8DF81020C3F307428DF81120C3F3F9
:1037880007228DF812208DF8133002AA0C214FF46D
:103798002570FFF75FFC08B010BD00BF0C0A0020C1
:1037A80010B586B00446164B93E8070006AB03E94C
:1037B8000700C82C1AD8C82393FBF4F3013B1A0E50
:1037C8008DF804208DF8053001AA022140F2162058
:1037D800FFF740FC68B903AA0C2140F6C120FFF7A7
:1037E80039FC48B9074B9C8106B010BD4FF0FF303B
:1037F800FAE74FF0FF30F7E74FF0FF30F4E700BF8C
:103808005CEF00080C0A002070B582B0044610F086
:10381800070F00F0AC800846B1F5C86F00F2AA8027
:10382800FCF7C0FF5B49FDF7C9F805460DF1030039
:10383800FEF7C4FE9DF80330023B0E2B00F29D807C
:10384800DFE803F0089B2C9B9B9B3C9B9B9B9B9BD3
:103858009B9B4C004FF08D412846FCF7FBFFFDF782
:10386800E5F986B24C492846FCF7F4FFFDF7DEF986
:1038780080B2330A8DF804308DF80560030A8DF89C
:1038880006308DF8070014F0010F37D114F0020F3D
:1038980048D114F0040F58D1002070E04FF08C414B
:1038A8002846FCF7D7FFFDF7C1F986B23B49284601
:1038B800FCF7D0FFFDF7BAF980B2DAE74FF08B4199
:1038C8002846FCF7C7FFFDF7B1F986B23449284608
:1038D800FCF7C0FFFDF7AAF980B2CAE74FF08A41AA
:1038E8002846FCF7B7FFFDF7A1F986B22D4928460F
:1038F800FCF7B0FFFDF79AF980B2BAE701AA0221F6
:103908004FF4EA70FFF7A6FB00283AD10DF1060242
:1039180002214FF49270FFF79DFB0028B6D04FF0BC
:10392800FF302CE001AA02214FF4EC70FFF792FB64
:1039380050BB0DF1060202214FF49470FFF78AFB89
:103948000028A6D04FF0FF3019E001AA02214FF459
:10395800EE70FFF77FFBD0B90DF1060202214FF49C
:103968009670FFF777FB50B14FF0FF3007E04FF04C
:10397800FF3004E04FF0FF3001E04FF0FF3002B0BD
:1039880070BD4FF0FF30FAE74FF0FF30F7E74FF028
:10399800FF30F4E700004843000040460000C045FF
:1039A800000040450000C04400B583B000238DF8F6
:1039B800073010F0010F02D030238DF8073010F0D7
:1039C800020F05D09DF8073043F00C038DF807303F
:1039D80010F0040F05D09DF8073043F003038DF86D
:1039E80007300DF1070201214FF4A470FFF732FBF5
:1039F80003B05DF804FB00B583B020B1034604288A
:103A080002D9042300E00123013B8DF807300DF1B2
:103A18000702012140F24F10FFF71CFB03B05DF8CD
:103A280004FB000000B583B0094BA3FB0030830AF8
:103A38008DF80430C0F387008DF8050001AA022133
:103A48004FF4EF70FFF706FB03B05DF804FB00BF0F
:103A5800CDCCCCCC00B583B0094BA3FB0030830A96
:103A68008DF80430C0F387008DF8050001AA022103
:103A78004FF4ED70FFF7EEFA03B05DF804FB00BFFA
:103A8800CDCCCCCC00B583B00E4B83FB0023C01744
:103A9800C0EBA31000FB01F10B0E8DF80430C1F34D
:103AA80007438DF80530C1F307238DF806308DF8EC
:103AB800071001AA04214FF4AE70FFF7CBFA03B048
:103AC8005DF804FBD34D621000B583B0084BA3FB2F
:103AD80000308308800A8DF804008DF8053001AAAB
:103AE80002214FF4AD70FFF7B5FA03B05DF804FB9F
:103AF800CDCCCCCC00B583B0084BA3FB00308308F9
:103B0800800A8DF804008DF8053001AA02214FF4CF
:103B1800AC70FFF79FFA03B05DF804FBCDCCCCCCBA
:103B280000B585B068B10D4A01AB07CA03C31A7066
:103B380001AA09214FF49760FFF78CFA05B05DF8E8
:103B480004FB074A01AB07CA03C31A7001AA09217B
:103B58004FF49760FFF77EFAF0E700BF6CEF0008BC
:103B680078EF000800B583B0B0B1C0238DF80430F9
:103B7800C2238DF80530C4238DF80630C6238DF88E
:103B8800073001AA042140F69820FFF763FAFEF7F0
:103B98005DFB03B05DF804FB4FF08B330193F0E756
:103BA80000B583B0B0B120238DF8043028238DF8F8
:103BB800053030238DF8063038238DF8073001AAF8
:103BC800042140F69E20FFF745FAFEF73FFB03B0BD
:103BD8005DF804FB4FF0A3330193F0E72DE9F041C2
:103BE80084B0044602238DF80430CA238DF80530CA
:103BF800E3238DF8063009238DF8073001AA042144
:103C08006820FFF727FAA3238DF8043014F0400842
:103C180000F0B080C0238DF80530C8238DF8063039
:103C2800C2238DF8073014F4C07500F0AB80C423AC
:103C38008DF80830CC238DF80930C6238DF80A306A
:103C4800A3238DF80B308DF80C308DF80D3001AAB8
:103C58000A2140F6A720FFF7FDF914F0030700F04A
:103C6800998020238DF8043001AA012140F6B6205E
:103C7800FFF7F0F914F0200F00F090800120FFF713
:103C88004FFFADB114F4807F00F08C80B2238DF823
:103C980004308B238DF80530B6238DF806309B232E
:103CA8008DF8073001AA042140F6A220FFF7D2F9C7
:103CB80014F0010F00F08380F8238DF8043001AA76
:103CC80001214FF40B60FFF7C5F9FA210720FFF730
:103CD8009BFD0720FFF768FE0120FFF78CFE64209C
:103CE800FFF7A0FE4FF4FA70FFF7B4FEC8213F4873
:103CF800FFF7C8FE2820FFF7E7FE0A20FFF7FAFEC5
:103D080014F0020F65D0D9238DF8043001AA0121DF
:103D180040F23D70FFF79EF914F0040F5DD00120CA
:103D2800FFF720FF14F0100F5BD00120FFF738FFDA
:103D38002F4E44F008037381FEF788FA0023B3730B
:103D4800B8F1000F01D00622B2731DB1284A937B47
:103D58000633937314F0140F03D0254A937B103362
:103D680093731FB1224A937B04339373002004B0EA
:103D7800BDE8F081A3238DF805308DF806308DF865
:103D8800073050E7A3238DF808308DF809308DF8F7
:103D98000A3055E7D8238DF8043065E70020FFF78F
:103DA800BFFE6EE7B0238DF8043080238DF8053010
:103DB800B4238DF8063090238DF8073072E7D823A6
:103DC8008DF8043001AA01214FF40B60FFF742F986
:103DD80096E7D8238DF8043098E70020FFF7C2FE55
:103DE800A0E70020FFF7DCFEA2E700BF09E3CA0254
:103DF8000C0A00202DE9F0478CB006460F46924683
:103E08009846149D00232B80159A04A9754B987B1E
:103E1800FEF750FD002840F0E2808146714B5B8937
:103E280013F0140F64D09DF810209DF811000004C1
:103E380040EA02609DF8122040EA02209DF8132013
:103E48001043CAF800009DF814109DF815201204BC
:103E580042EA01629DF8161042EA01229DF8171005
:103E68000A43CAF804209DF818409DF8191009045F
:103E780041EA04619DF81A4041EA04219DF81B407B
:103E88002143CAF808109DF81CC09DF81D40240461
:103E980044EA0C649DF81EC044EA0C249DF81FC037
:103EA80044EA0C04CAF80C40001400904FEA224C73
:103EB800CDF804C009140291221403920CFB0CFCE7
:103EC80000FB00C001FB010102FB021202F171427A
:103ED800B2F1007F05D82A8842F480722A80102225
:103EE80007E0FEF7B3F900232B804FF0FF396DE0B0
:103EF800002213F0400F2FD002F13001694411F86D
:103F0800204C02F131010DEB010010F8201C41EAB0
:103F18000421398002F13201694411F8204C02F180
:103F280033010DEB010010F8201C41EA04217980CF
:103F380002F13401694411F8204C02F135010DEB0E
:103F4800010010F8201C41EA0421B9800632D2B2DF
:103F5800298841F00801298013F4C07F2FD002F18D
:103F68003001694411F8204C02F131010DEB0100D8
:103F780010F8201C41EA0421318002F13201694421
:103F880011F8204C02F133010DEB010010F8201C50
:103F980041EA0421718002F13401694411F8204C8E
:103FA80002F135010DEB010010F8201C41EA042153
:103FB800B1800632D2B2298841F07001298013F00D
:103FC800030F07D100F0EEFAC8F8000048460CB01D
:103FD800BDE8F08704AB9818FFF70EFAF2E74FF048
:103FE800FF39F3E70C0A002072B6FEE700B591B07E
:103FF8002822002106A802F0A3FB002301930293C4
:10400800039304930593012206924FF48033079398
:104018000A9202220D920E934FF4E0130F9306A812
:1040280001F0D6FC80B90F230193022102910023ED
:1040380003934FF480620492059301A801F0FAFEFD
:1040480020B911B05DF804FBFFF7CEFFFFF7CCFFF6
:1040580030B589B000F088FAFFF7C8FF00F08EF895
:1040680000F06AF800F0ACF800F0A0F9FDF794FB56
:10407800002832D0044601461A4802F0B3FB0AE091
:104088004FF47A7000F094FAFDF786FB0446014677
:10409800144802F0A7FB002CF2D1134802F004FCEC
:1040A80005AA06A907A8FDF7C7FB0028F8D00798B6
:1040B800FCF71AFA04460D460598FCF715FACDE9FF
:1040C80002010698FCF710FACDE9000122462B46BA
:1040D8000649074800F00EF8E2E7034802F0E4FB5F
:1040E800DEE700BF7CFB000898FB0008B0FB000877
:1040F800FC0A00200EB470B5C3B0054647AC54F8AE
:10410800046B00210291FB2203A802F019FB019421
:104118002246314602A804F0EBF902A802F0CCFBD3
:10412800FF2382B202A9284602F07CF843B0BDE81A
:10413800704003B07047000000B583B00E4B5A6959
:1041480042F001025A615B6903F001030193019B8C
:10415800002211460E2000F051FA0E2000F086FAD7
:10416800002211460F2000F049FA0F2000F07EFAD5
:1041780003B05DF804FB00BF0010024084B00F4B91
:104188009A6942F020029A619A6902F0200201922B
:10419800019A9A6942F004029A619A6902F004024B
:1041A8000292029A9A6942F008029A619B6903F0A6
:1041B80008030393039B04B0704700BF001002403C
:1041C80008B50B480B4B03600B4B4360002383601F
:1041D800C3604FF48042026143618361C36103623B
:1041E80001F0ACF800B908BDFFF7FEFEFBE700BF21
:1041F8001C0A002000540040801A060010B586B042
:10420800002302930393049305930268114B9A4287
:1042180001D006B010BD104CA36943F00803A36198
:10422800A36903F008030093009BC02302931223A1
:1042380003930323059302A9084800F0D5FCE3691A
:1042480043F40013E361E36903F400130193019B52
:10425800DFE700BF0054004000100240000C01409E
:1042680082B00E4B9A6942F001029A619A6902F093
:1042780001020092009ADA6942F08052DA61DB6941
:1042880003F080530193019B054A536823F0E063D0
:1042980043F00073536002B0704700BF0010024043
:1042A80000000140FEE7FEE7FEE7FEE7FEE7704795
:1042B8007047704708B500F069F908BD08B50248AD
:1042C80000F01CFB08BD00BFB80A002008B5024872
:1042D80000F014FB08BD00BF740A002008B50248AE
:1042E80002F08CF808BD00BFFC0A002001207047CE
:1042F80008B502F0C7F9162303604FF0FF3008BD78
:1043080008B54FF0FF31FFF7F3FFFEE770B50C4635
:104318001646002506E0AFF30080214601F8010BA0
:1043280001350C46B542F6DB304670BD70B50C461B
:104338001646002504E014F8010BAFF300800135A0
:10434800B542F8DB304670BD4FF0FF3070474FF490
:1043580000534B60002070470120704700207047D1
:1043680010B503460C4A0D490D48006840B10C4889
:1043780000680344521A934206D8094A136010BDD4
:104388000748084C0460F2E702F07CF90C2303604C
:104398004FF0FF30F3E700BF00C00020000400002A
:1043A800700A0020900B00207047000008B50A48EA
:1043B8000A4B03604FF4E133436000238360C3601A
:1043C80003610C2242618361C36101F0FBFE00B905
:1043D80008BDFFF709FEFBE7FC0A00200038014092
:1043E80070B586B000230293039304930593026883
:1043F800314B9A4201D006B070BD044603F55843CC
:104408009A6942F480429A619A6902F48042009261
:10441800009A9A6942F004029A619B6903F00403C6
:104428000193019B4FF40073029302230393032328
:104438000593224E02A9304600F0D6FB4FF4806364
:10444800029300250395049502A9304600F0CCFBA1
:104458001B481C4B0360456085608023C360056171
:1044680045618561C56100F023F9F0B9144BE36338
:104478005C621548154B036010234360002383607A
:104488008022C260036143618361C36100F010F957
:1044980070B90D4BA3635C6200221146252000F021
:1044A800ADF8252000F0E2F8A5E7FFF79DFDDDE770
:1044B800FFF79AFDEDE700BF003801400008014012
:1044C800740A002058000240B80A00204400024044
:1044D800FFF76AFF0B480C490C4A002302E0D45846
:1044E800C4500433C4188C42F9D3094A094C002338
:1044F80001E013600432A242FBD302F0C9F8FFF7CF
:10450800A7FD704700000020F0090020A400010862
:10451800F0090020900B0020FEE7000010B50446CB
:104528000E4B18784FF47A73B3FBF0F30C4A10680B
:10453800B0FBF3F000F0A8F868B90F2C01D90120FE
:104548000AE0002221464FF0FF3000F057F8054BF3
:104558001C60002000E0012010BD00BF3C000020CE
:10456800380000204000002008B5074A136843F0CF
:1045780010031360032000F02FF80F20FFF7CEFF81
:10458800FFF76EFE002008BD00200240034A1168B4
:10459800034B1B780B441360704700BF440B00208B
:1045A8003C000020014B1868704700BF440B0020F6
:1045B80038B50446FFF7F6FF0546B4F1FF3F02D0D1
:1045C800044B1B781C44FFF7EDFF401BA042FAD3B5
:1045D80038BD00BF3C000020074AD36823F4E063DD
:1045E8001B041B0C000200F4E060034343F0BF63AC
:1045F80043F40033D360704700ED00E000B5194B79
:10460800DB68C3F30223C3F1070CBCF1040F28BF16
:104618004FF0040C03F1040EBEF1060F18D9033B4A
:104628004FF0FF3E0EFA0CFC21EA0C0199400EFAFD
:1046380003F322EA0303194300280BDB0901C9B27B
:1046480000F1604000F5614080F800135DF804FB5C
:104658000023E5E700F00F000901C9B2024B195425
:10466800F4E700BF00ED00E014ED00E0002807DBF0
:1046780000F01F02400901239340024A42F820300B
:10468800704700BF00E100E00138B0F1807F0BD235
:104698004FF0E0235861054AF02182F823100020EA
:1046A800986107221A6170470120704700ED00E009
:1046B80000283AD010B4024600681D4B984229D809
:1046C8001C4B03441C49A1FB03131B099B001364E7
:1046D8001A4BD363022382F82130016821F47F51F9
:1046E80021F03001536894682343D4682343146944
:1046F80023435469234394692343D46923430B43D5
:10470800036000209063012382F8213082F82000A2
:1047180010BC70470A4B03440749A1FB03131B094C
:104728009B001364074BD363D4E70120704700BF95
:1047380007040240F8FFFDBFCDCCCCCC00000240FE
:10474800F8FBFDBF0004024090F82130DBB2022BD9
:1047580006D004238363002380F8203001207047AB
:104768000268136823F00E0313600268136823F0CD
:1047780001031360036CC16B012202FA03F34B605F
:1047880080F82120002380F8203018467047000068
:1047980008B590F82130DBB2022B03D004238363E1
:1047A800012008BD0268136823F00E031360026835
:1047B800136823F00103136003684C4A93424ED9EF
:1047C800783A934224D01432934230D01432934230
:1047D8002FD0143293422FD0143293422FD0143258
:1047E80093422FD0143293422FD002F56272934233
:1047F8002ED0143293422DD0143293422CD014323E
:10480800934202D04FF4803203E04FF4805200E02C
:104818000122374B5A60012380F82130002380F8A9
:104828002030436B002B5ED098470020B9E7102258
:10483800EFE74FF48072ECE74FF48052E9E74FF46A
:104848008032E6E74FF48012E3E74FF08072E0E74A
:104858000122DEE71022DCE74FF48072D9E7254A0F
:10486800934224D01432934225D01432934224D058
:104878001432934224D01432934224D014329342F7
:1048880024D01432934224D002F56272934223D08A
:104898001432934222D01432934221D014329342DC
:1048A80002D04FF4803203E04FF4805200E001223E
:1048B800114B5A60AFE71022FAE74FF48072F7E71E
:1048C8004FF48052F4E74FF48032F1E74FF480124E
:1048D800EEE74FF08072EBE70122E9E71022E7E705
:1048E8004FF48072E4E700205BE700BF80000240DD
:1048F80000040240080002400000024038B5C36BC3
:104908001A6804682568016C04238B40134200F080
:104918009B8015F0040F00F09780236813F0200F98
:1049280003D1236823F00403236003689A4A93425F
:1049380046D9783A934224D01432934228D014327C
:10494800934227D01432934227D01432934227D06F
:104958001432934227D01432934227D002F5627260
:10496800934226D01432934225D01432934224D055
:104978001432934202D04FF4802203E04FF4804275
:1049880000E00422854B5A60C36A03B1984738BDDA
:104998004022F7E74FF48062F4E74FF48042F1E7F2
:1049A8004FF48022EEE74FF48002EBE74FF080628D
:1049B800E8E70422E6E74022E4E74FF48062E1E713
:1049C800774A934224D01432934225D0143293422A
:1049D80024D01432934224D01432934224D0143277
:1049E800934224D01432934224D002F56272934247
:1049F80023D01432934222D01432934221D014325D
:104A0800934202D04FF4802203E04FF4804200E04A
:104A18000422644B5A60B7E74022FAE74FF48062F9
:104A2800F7E74FF48042F4E74FF48022F1E74FF4C0
:104A38008002EEE74FF08062EBE70422E9E74022CC
:104A4800E7E74FF48062E4E702238B40134200F06B
:104A5800AB8015F0020F00F0A780236813F0200F39
:104A680006D1236823F00A032360012380F821304C
:104A78000368494A93424BD9783A934224D0143276
:104A880093422DD0143293422CD0143293422CD01E
:104A9800143293422CD0143293422CD014329342C5
:104AA8002CD002F5627293422BD0143293422AD052
:104AB8001432934229D01432934202D04FF4003278
:104AC80003E04FF4005200E00222344B5A60002306
:104AD80080F82030836A002B3FF459AF984756E797
:104AE8002022F2E74FF40072EFE74FF40052ECE7B0
:104AF8004FF40032E9E74FF40012E6E74FF0007296
:104B0800E3E70222E1E72022DFE74FF40072DCE767
:104B1800234A934224D01432934225D0143293422C
:104B280024D01432934224D01432934224D0143225
:104B3800934224D01432934224D002F562729342F5
:104B480023D01432934222D01432934221D014320B
:104B5800934202D04FF4003203E04FF4005200E0D9
:104B68000222104B5A60B2E72022FAE74FF4007293
:104B7800F7E74FF40052F4E74FF40032F1E74FF44F
:104B88000012EEE74FF00072EBE70222E9E720227D
:104B9800E7E74FF40072E4E78000024000040240B7
:104BA8000800024000000240082303FA01F1114204
:104BB8003FF4EDAE15F0080F3FF4E9AE236823F09B
:104BC8000E032360026CC16B012303FA02F24A60F0
:104BD800836380F82130002380F82030036B002B9A
:104BE8003FF4D5AE9847D2E670B582B00024A4460B
:104BF800B0E0874DAA4210D007D9864DAA420CD002
:104C080005F58035AA4208D013E0A5F58015AA421B
:104C180003D005F57025AA4207D18A68002A62D018
:104C2800012A5BD04361082403E0A5F58015AA4258
:104C3800F3D0BEF1FF0F58D80646BEF1FF0F56D885
:104C48004FEA8C0233680F25954023EA050304FADE
:104C580002F2134333604B6813F0805F78D06E4BD9
:104C68009A6942F001029A619B6903F0010301937A
:104C7800019B4FEA9C02951C684B53F825600CF089
:104C880003039D000F23AB4026EA0306644B9842BA
:104C980033D003F58063984200F0988003F5806371
:104CA800984200F0958003F58063984200F0928066
:104CB80003F58063984200F08F8003F58063984283
:104CC80019D006231AE0CC68B3E7CC680434B0E7FF
:104CD800CC680834ADE7CC680C34AAE70361082433
:104CE800A7E70024A5E70424A3E7061DA5E7ACF180
:104CF80008029200A6E7052300E00023AB403343F7
:104D08000232464D45F822304B6813F4801F65D0B7
:104D1800444A936843EA0E0393604B6813F4001FF8
:104D280062D0404AD36843EA0E03D3604B6813F459
:104D3800003F5FD03B4A536843EA0E0353604B6819
:104D480013F4803F5CD0374A136843EA0E031360BC
:104D58000CF1010C0A6832FA0CF357D0012303FA5C
:104D68000CF302EA030E33EA0202F1D14A68122A6E
:104D78003FF63FAF122A3FF65CAF01A555F822F087
:104D8800234C0008CF4C0008D94C0008EB4C000815
:104D98003B4C00083B4C00083B4C00083B4C0008CF
:104DA8003B4C00083B4C00083B4C00083B4C0008BF
:104DB8003B4C00083B4C00083B4C00083B4C0008AF
:104DC8003B4C0008D34C0008DF4C0008012395E752
:104DD800022393E7032391E704238FE7114A93689B
:104DE80023EA0E03936098E70E4AD36823EA0E037A
:104DF800D3609BE70B4A536823EA0E0353609EE790
:104E0800084A136823EA0E031360A1E702B070BDD5
:104E18000000221000003110001002400000014084
:104E2800000801400004014003685A6912F4806FC9
:104E380001D1002070476FF480625A610023036338
:104E4800202280F83D2080F83E30026C42F00402B7
:104E5800026480F83C30012070472DE9F041064695
:104E68000C46174698463BE0FFF79CFB069BC01A8A
:104E7800404502D8B8F1000F32D1012D18D033685F
:104E88009B6924EA03039BB2B3FA83F35B099F424D
:104E980026D100233363202286F83D2086F83E3051
:104EA800326C42F02002326486F83C30012027E060
:104EB80033685B6924EA03039BB2B3FA83F35B09A3
:104EC800E5E733685B6924EA030C1FFA8CFCBCFA3B
:104ED8008CFC4FEA5C1C674511D1B8F1FF3FC3D188
:104EE800C4F30745012DECD033689B6924EA030C11
:104EF8001FFA8CFCBCFA8CFC4FEA5C1CEBE7002028
:104F0800BDE8F0812DE9F84305460E4690469946DE
:104F180053E01A6842F400721A602B686FF48062DA
:104F28005A6100232B63202285F83D2085F83E3006
:104F38002A6C42F004022A6485F83C3001204AE0D9
:104F4800FFF730FBA0EB0900404502D8B8F1000F8D
:104F580033D1012F17D02B689B6926EA03039BB234
:104F6800003B18BF012343B300232B63202285F89D
:104F78003D2085F83E302A6C42F020022A6485F8EC
:104F88003C30012027E02B685B6926EA03039BB2CB
:104F9800003B18BF0123E6E72B689C6926EA040456
:104FA800A4B2003C18BF0124A4B12B685A6912F4BA
:104FB800806FAED1B8F1FF3FC2D1C6F30747012FCA
:104FC800EAD12B685C6926EA0404A4B2003C18BF45
:104FD8000124E9E70020BDE8F88370B504460D46D2
:104FE800164623685B6913F0800F21D12046FFF72E
:104FF8001BFFF8B9B5F1FF3FF3D0FFF7D3FA801BD9
:10500800A84201D8002DECD123685B6913F0800F0A
:10501800E7D100232363202284F83D2084F83E3022
:10502800226C42F02002226484F83C30012000E027
:10503800002070BD0120FCE72DE9F04385B004464F
:105048000D4691461F46DDF830800D9E03681968AD
:1050580041F4807119600096434600224FF0011117
:10506800FFF7FBFE60B9236805F0FE051D613346B6
:10507800424626492046FFF745FF68B1012008E06F
:1050880023681B6813F4807F02D04FF400732364F5
:10509800032005B0BDE8F0830023039323685A6911
:1050A80003929B690393039B324641462046FFF7D0
:1050B80094FF30B9012F0FD123685FFA89F61E617A
:1050C800E7E7236C042B01D00120E2E7226813688C
:1050D80043F400731360F7E723684FEA19221A6153
:1050E800324641462046FFF778FF20B923685FFA29
:1050F80089F61E61CDE7236C042B01D00120C8E797
:105108002268136843F400731360F7E70200010094
:105118002DE9F04784B004460D46164699460C9F83
:10512800DDF834800268136843F480631360036811
:10513800196841F480711960CDF800803B4600225F
:105148004FF00111FFF789FE70B95FFA85FA2368FD
:1051580005F0FE051D6143463A4641492046FFF7E2
:10516800D1FE68B1012008E023681B6813F4807F32
:1051780002D04FF400732364032004B0BDE8F08725
:105188000023039323685A6903929B690393039B43
:10519800424639462046FFF720FF80B9B9F1010F92
:1051A80018D12368F6B21E61424639462046FFF7F9
:1051B80014FF68B3236C042B24D00120DDE7236C93
:1051C800042B01D00120D8E72268136843F4007348
:1051D8001360F7E72368320A1A61424639462046C7
:1051E800FFF7FBFE18B92368F6B21E61DCE7236CF3
:1051F800042B01D00120C0E72268136843F4007330
:105208001360F7E72268136843F400731360D4E768
:105218002268136843F480731360CDF800803B461E
:1052280000224FF001112046FFF717FE68B92268E7
:105238004AF00103136143463A4609492046FFF7FD
:1052480061FE002899D0012097E723681B6813F4B2
:10525800807F02D04FF40073236403208DE700BFE2
:105268000200010070B504460D46164623685B69C6
:1052780013F0040F21D12046FFF7D6FDF8B9B5F198
:10528800FF3FF3D0FFF78EF9801BA84201D8002D0D
:10529800ECD123685B6913F0040FE7D10023236383
:1052A800202284F83D2084F83E30226C42F020020F
:1052B800226484F83C30012000E0002070BD012009
:1052C800FCE770B504460D46164614E06FF0100270
:1052D8005A6100232363202284F83D2084F83E305D
:1052E800226C226484F83C30012025E023685B6945
:1052F80013F0400F10D02368586910F0400F1AD1EE
:10530800586910F0100FE1D1FFF74CF9801BA84243
:10531800ECD8002DEFD1E9E700232363202284F89D
:105328003D2084F83E30226C42F02002226484F84A
:105338003C30012000E0002070BD0000002800F093
:10534800CC8070B5044690F83D30002B77D02423EC
:1053580084F83D302268136823F001031360226843
:10536800136843F4004313602268136823F400436E
:10537800136000F01BFE62685A4B9A4264D85A4B7D
:1053880098428CBF00230123002B40F0A880574986
:10539800A1FB00318B0C25686A6822F03F0242EAC3
:1053A80091426A6021680A6A22F03F0266684D4DA0
:1053B800AE424FD8013313430B622168CA6922F405
:1053C8004F4222F0FF026668464B9E424CD8431E6D
:1053D8007600B3FBF6F3013340F6FC70034278D055
:1053E800C3F30B031343CB6121680B6823F0C0039D
:1053F800E269206A024313430B6021688B6823F437
:10540800034323F0FF032269E068024313438B60E0
:105418002168CB6823F0FF036269A0690243134344
:10542800CB602268136843F00103136000202064F6
:10543800202384F83D30206384F83E0070BD80F856
:105448003C30FEF7DBFE82E7294B98428CBF0023F5
:10545800012399E74FF4967505FB03F3254DA5FB4A
:1054680003539B090133A6E7A368BBB9451E06EBA6
:10547800460CB5FBFCF50135C5F30B05B5FA85F50A
:105488006D0945BBC3B9013806EB4603B0FBF3F31E
:105498000133C3F30B0343F40043A3E7451E06EBB4
:1054A800860C0CEB8C0CB5FBFCF50135C5F30B0534
:1054B800B5FA85F56D09E4E7013806EB860303EBD9
:1054C8008303B0FBF3F30133C3F30B0343F440430B
:1054D80088E7042386E7012384E701207047012039
:1054E800ACE700BFA08601007F841E0083DE1B435B
:1054F800FF083D00D34D62102DE9F04383B0044608
:105508000F46904699460C9EFFF74CF8054694F8CE
:105518003D00C0B2202803D0022003B0BDE8F083CC
:105528000095192301224B492046FFF796FC0028D5
:1055380040F0898094F83C30012B00F086800123EC
:1055480084F83C3023681A6812F0010F03D11A68F6
:1055580042F001021A602268136823F400631360A2
:10556800212384F83D30402384F83E30002323640F
:105578000A9B6362BDF82C306385638D2385364BA7
:10558800E362019500964B46424639462046FFF7AE
:1055980053FD00285BD1238D002B35D02A46314698
:1055A8002046FFF71AFD20BB626A236812781A6149
:1055B800626A531C6362218D013989B22185638D2A
:1055C8009BB2013B9BB263852368586910F0040FB6
:1055D800E1D00029DFD052781A61636A013363622F
:1055E800238D013B2385638D9BB2013B9BB2638571
:1055F800D1E7236C042B01D001208EE722681368C1
:1056080043F400731360F7E72A4631462046FFF754
:1056180029FE50B1236C042B01D001207DE72268BC
:10562800136843F400731360F7E72268136843F4C0
:1056380000731360202384F83D30002384F83E3043
:1056480084F83C3069E7022067E7022065E701201B
:1056580063E700BF020010000000FFFF2DE9F043E0
:1056680089B004460F4690469946129E0023079338
:10567800FEF798FF054694F83D00C0B2202804D0F4
:105688000227384609B0BDE8F083009519230122A6
:1056980081492046FFF7E1FB002840F0728194F829
:1056A8003C30012B00F06F81012384F83C302368E3
:1056B8001A6812F0010F03D11A6842F001021A6049
:1056C8002268136823F400631360222384F83D30B2
:1056D800402384F83E3000232364109B6362BDF8A6
:1056E80044306385638D23856C4BE3620195009696
:1056F8004B46424639462046FFF70AFD0746002832
:1057080040F04381238D5BB9039323685A69039260
:105718009A690392039A1A6842F400721A60EDE0DB
:10572800012B0FD0022B21D02268136843F4806329
:1057380013600023069323685A6906929B690693AF
:10574800069BDBE02268136823F48063136072B65B
:105758000023049323685A6904929A690492049A6C
:105768001A6842F400721A6062B6C7E022681368C9
:1057780043F40063136072B60023059323685A69E3
:1057880005929A690592059A1A6822F480621A604D
:1057980062B6B3E02A4631462046FFF792FD00285C
:1057A80040F0F58023681A69636A1A70636A0133E6
:1057B8006362238D013B2385638D9BB2013B9BB2C2
:1057C80063859BE000953346002235492046FFF764
:1057D80044FB002840F0DF802268136823F48063CC
:1057E800136072B623681A69636A1A70636A0133B0
:1057F8006362238D013B2385638D9BB2013B9BB282
:105808006385284B1B68DB08274AA2FB03231B0A76
:1058180003EB8303C3EBC3030793079B013B079386
:10582800079B002B28D023685A6912F0040FF4D084
:105838001A6842F400721A6023681A69636A1A7057
:10584800636A01336362238D013B2385638D9BB2B9
:10585800013B9BB2638562B623681A69636A1A7052
:10586800636A01336362238D013B2385638D9BB299
:10587800013B9BB2638541E02363202284F83D20ED
:1058880084F83E30226C42F02002226462B684F82A
:105898003C300127F5E600BF020010000000FFFFC2
:1058A800040001003800002089B5F8142A46314662
:1058B8002046FFF706FD00286FD123681A69636A3E
:1058C8001A70626A531C6362238D013B2385638DC2
:1058D8009BB2013B9BB263852368596911F0040FA1
:1058E8000CD01B695370636A01336362238D013BDB
:1058F8002385638D9BB2013B9BB26385238D002B6F
:1059080036D0032BD2D8012B3FF444AF022B7FF4BF
:1059180059AF00953346002221492046FFF79DFAEA
:10592800002836D172B62268136843F400731360F6
:1059380023681A69636A1A70636A01336362238D84
:10594800013B2385638D9BB2013B9BB2638562B6A5
:1059580023681A69636A1A70636A01336362238D64
:10596800013B2385638D9BB2013B9BB26385C5E7F1
:10597800202384F83D30002384F83E3084F83C30FE
:105988007FE602277DE602277BE6012779E60127E5
:1059980077E6012775E6012773E6012771E600BF60
:1059A8000400010082B0084B1B68084AA2FB0323CD
:1059B8005B0A00FB03F3019300BF019B5A1E01928F
:1059C800002BF9D102B0704738000020D34D621087
:1059D800002800F0F18170B582B00446036813F026
:1059E800010F2CD0994B5B6803F00C03042B1DD0DE
:1059F800964B5B6803F00C03082B12D06368B3F571
:105A0800803F41D0002B55D103F1804303F5043387
:105A18001A6822F480321A601A6822F480221A6006
:105A280037E08A4B5B6813F4803FE7D0874B1B68ED
:105A380013F4003F03D06368002B00F0BF81236894
:105A480013F0020F75D0814B5B6813F00C0F5FD019
:105A58007E4B5B6803F00C03082B54D02369002BA2
:105A680000F08A807A4B01221A60FEF79BFD0546FA
:105A7800764B1B6813F0020F75D1FEF793FD401BA0
:105A88000228F5D903209EE1704A136843F4803355
:105A98001360636843B3FEF785FD05466B4B1B68CF
:105AA80013F4003FCBD1FEF77DFD401B6428F5D9E8
:105AB800032088E1B3F5A02F09D0644B1A6822F4BB
:105AC80080321A601A6822F480221A60E1E703F132
